{
  "contractName": "RatelExampleToken",
  "abi": [
    {
      "constant": false,
      "inputs": [
        {
          "name": "_address",
          "type": "address"
        }
      ],
      "name": "transferCustodian",
      "outputs": [],
      "payable": false,
      "stateMutability": "nonpayable",
      "type": "function"
    },
    {
      "constant": false,
      "inputs": [
        {
          "name": "_newSellPrice",
          "type": "uint256"
        },
        {
          "name": "_newBuyPrice",
          "type": "uint256"
        }
      ],
      "name": "setPrices",
      "outputs": [],
      "payable": false,
      "stateMutability": "nonpayable",
      "type": "function"
    },
    {
      "constant": true,
      "inputs": [],
      "name": "name",
      "outputs": [
        {
          "name": "",
          "type": "string"
        }
      ],
      "payable": false,
      "stateMutability": "view",
      "type": "function"
    },
    {
      "constant": false,
      "inputs": [
        {
          "name": "_spender",
          "type": "address"
        },
        {
          "name": "_value",
          "type": "uint256"
        }
      ],
      "name": "approve",
      "outputs": [
        {
          "name": "success",
          "type": "bool"
        }
      ],
      "payable": false,
      "stateMutability": "nonpayable",
      "type": "function"
    },
    {
      "constant": true,
      "inputs": [],
      "name": "totalSupply",
      "outputs": [
        {
          "name": "",
          "type": "uint256"
        }
      ],
      "payable": false,
      "stateMutability": "view",
      "type": "function"
    },
    {
      "constant": false,
      "inputs": [
        {
          "name": "_owner",
          "type": "address"
        },
        {
          "name": "_to",
          "type": "address"
        },
        {
          "name": "_value",
          "type": "uint256"
        }
      ],
      "name": "transferFrom",
      "outputs": [
        {
          "name": "success",
          "type": "bool"
        }
      ],
      "payable": false,
      "stateMutability": "nonpayable",
      "type": "function"
    },
    {
      "constant": true,
      "inputs": [
        {
          "name": "",
          "type": "address"
        }
      ],
      "name": "balances",
      "outputs": [
        {
          "name": "",
          "type": "uint256"
        }
      ],
      "payable": false,
      "stateMutability": "view",
      "type": "function"
    },
    {
      "constant": false,
      "inputs": [
        {
          "name": "_address",
          "type": "address"
        },
        {
          "name": "_value",
          "type": "uint256"
        }
      ],
      "name": "revokeToken",
      "outputs": [
        {
          "name": "success",
          "type": "bool"
        }
      ],
      "payable": false,
      "stateMutability": "nonpayable",
      "type": "function"
    },
    {
      "constant": true,
      "inputs": [],
      "name": "decimals",
      "outputs": [
        {
          "name": "",
          "type": "uint8"
        }
      ],
      "payable": false,
      "stateMutability": "view",
      "type": "function"
    },
    {
      "constant": true,
      "inputs": [],
      "name": "onSale",
      "outputs": [
        {
          "name": "",
          "type": "bool"
        }
      ],
      "payable": false,
      "stateMutability": "view",
      "type": "function"
    },
    {
      "constant": false,
      "inputs": [],
      "name": "kill",
      "outputs": [],
      "payable": false,
      "stateMutability": "nonpayable",
      "type": "function"
    },
    {
      "constant": true,
      "inputs": [],
      "name": "sellPrice",
      "outputs": [
        {
          "name": "",
          "type": "uint256"
        }
      ],
      "payable": false,
      "stateMutability": "view",
      "type": "function"
    },
    {
      "constant": true,
      "inputs": [
        {
          "name": "",
          "type": "address"
        }
      ],
      "name": "lockedValue",
      "outputs": [
        {
          "name": "",
          "type": "uint256"
        }
      ],
      "payable": false,
      "stateMutability": "view",
      "type": "function"
    },
    {
      "constant": true,
      "inputs": [],
      "name": "version",
      "outputs": [
        {
          "name": "",
          "type": "string"
        }
      ],
      "payable": false,
      "stateMutability": "view",
      "type": "function"
    },
    {
      "constant": true,
      "inputs": [
        {
          "name": "",
          "type": "address"
        },
        {
          "name": "",
          "type": "address"
        }
      ],
      "name": "allowances",
      "outputs": [
        {
          "name": "",
          "type": "uint256"
        }
      ],
      "payable": false,
      "stateMutability": "view",
      "type": "function"
    },
    {
      "constant": false,
      "inputs": [
        {
          "name": "_onSale",
          "type": "bool"
        }
      ],
      "name": "updateSale",
      "outputs": [],
      "payable": false,
      "stateMutability": "nonpayable",
      "type": "function"
    },
    {
      "constant": true,
      "inputs": [
        {
          "name": "_address",
          "type": "address"
        }
      ],
      "name": "balanceOf",
      "outputs": [
        {
          "name": "balance",
          "type": "uint256"
        }
      ],
      "payable": false,
      "stateMutability": "view",
      "type": "function"
    },
    {
      "constant": false,
      "inputs": [
        {
          "name": "_address",
          "type": "address"
        }
      ],
      "name": "moveTokenToMinter",
      "outputs": [
        {
          "name": "success",
          "type": "bool"
        }
      ],
      "payable": false,
      "stateMutability": "nonpayable",
      "type": "function"
    },
    {
      "constant": false,
      "inputs": [
        {
          "name": "_value",
          "type": "uint256"
        }
      ],
      "name": "lockToken",
      "outputs": [
        {
          "name": "success",
          "type": "bool"
        }
      ],
      "payable": false,
      "stateMutability": "nonpayable",
      "type": "function"
    },
    {
      "constant": true,
      "inputs": [],
      "name": "buyPrice",
      "outputs": [
        {
          "name": "",
          "type": "uint256"
        }
      ],
      "payable": false,
      "stateMutability": "view",
      "type": "function"
    },
    {
      "constant": true,
      "inputs": [],
      "name": "symbol",
      "outputs": [
        {
          "name": "",
          "type": "string"
        }
      ],
      "payable": false,
      "stateMutability": "view",
      "type": "function"
    },
    {
      "constant": false,
      "inputs": [
        {
          "name": "_address",
          "type": "address"
        }
      ],
      "name": "unlockToken",
      "outputs": [
        {
          "name": "success",
          "type": "bool"
        }
      ],
      "payable": false,
      "stateMutability": "nonpayable",
      "type": "function"
    },
    {
      "constant": false,
      "inputs": [
        {
          "name": "_amountToMint",
          "type": "uint256"
        }
      ],
      "name": "mint",
      "outputs": [],
      "payable": false,
      "stateMutability": "nonpayable",
      "type": "function"
    },
    {
      "constant": true,
      "inputs": [],
      "name": "custodianAddress",
      "outputs": [
        {
          "name": "",
          "type": "address"
        }
      ],
      "payable": false,
      "stateMutability": "view",
      "type": "function"
    },
    {
      "constant": false,
      "inputs": [],
      "name": "buy",
      "outputs": [
        {
          "name": "amount",
          "type": "uint256"
        }
      ],
      "payable": true,
      "stateMutability": "payable",
      "type": "function"
    },
    {
      "constant": false,
      "inputs": [
        {
          "name": "_to",
          "type": "address"
        },
        {
          "name": "_value",
          "type": "uint256"
        },
        {
          "name": "_data",
          "type": "bytes"
        }
      ],
      "name": "transfer",
      "outputs": [
        {
          "name": "success",
          "type": "bool"
        }
      ],
      "payable": false,
      "stateMutability": "nonpayable",
      "type": "function"
    },
    {
      "constant": true,
      "inputs": [],
      "name": "centralMinter",
      "outputs": [
        {
          "name": "",
          "type": "address"
        }
      ],
      "payable": false,
      "stateMutability": "view",
      "type": "function"
    },
    {
      "constant": true,
      "inputs": [
        {
          "name": "_owner",
          "type": "address"
        },
        {
          "name": "_spender",
          "type": "address"
        }
      ],
      "name": "allowance",
      "outputs": [
        {
          "name": "remaining",
          "type": "uint256"
        }
      ],
      "payable": false,
      "stateMutability": "view",
      "type": "function"
    },
    {
      "constant": false,
      "inputs": [
        {
          "name": "_amount",
          "type": "uint256"
        }
      ],
      "name": "sell",
      "outputs": [
        {
          "name": "revenue",
          "type": "uint256"
        }
      ],
      "payable": false,
      "stateMutability": "nonpayable",
      "type": "function"
    },
    {
      "constant": false,
      "inputs": [
        {
          "name": "_address",
          "type": "address"
        }
      ],
      "name": "transferMinter",
      "outputs": [],
      "payable": false,
      "stateMutability": "nonpayable",
      "type": "function"
    },
    {
      "inputs": [
        {
          "name": "_initialAmount",
          "type": "uint256"
        }
      ],
      "payable": false,
      "stateMutability": "nonpayable",
      "type": "constructor"
    },
    {
      "payable": true,
      "stateMutability": "payable",
      "type": "fallback"
    },
    {
      "anonymous": false,
      "inputs": [
        {
          "indexed": true,
          "name": "_from",
          "type": "address"
        },
        {
          "indexed": true,
          "name": "_to",
          "type": "address"
        },
        {
          "indexed": false,
          "name": "_value",
          "type": "uint256"
        },
        {
          "indexed": false,
          "name": "_data",
          "type": "bytes"
        }
      ],
      "name": "Transfer",
      "type": "event"
    },
    {
      "anonymous": false,
      "inputs": [
        {
          "indexed": true,
          "name": "_owner",
          "type": "address"
        },
        {
          "indexed": true,
          "name": "_spender",
          "type": "address"
        },
        {
          "indexed": false,
          "name": "_value",
          "type": "uint256"
        }
      ],
      "name": "Approval",
      "type": "event"
    }
  ],
  "bytecode": "0x606060405234156200001057600080fd5b60405160208062002e3b8339810160405280805190602001909190505080600160003373ffffffffffffffffffffffffffffffffffffffff1673ffffffffffffffffffffffffffffffffffffffff16815260200190815260200160002081905550806003819055506040805190810160405280601381526020017f526174656c204e6574776f726b20546f6b656e0000000000000000000000000081525060049080519060200190620000c5929190620001fb565b506012600560006101000a81548160ff021916908360ff1602179055506040805190810160405280600381526020017f524e540000000000000000000000000000000000000000000000000000000000815250600690805190602001906200012f929190620001fb565b506040805190810160405280600381526020017f302e310000000000000000000000000000000000000000000000000000000000815250600790805190602001906200017d929190620001fb565b5033600860006101000a81548173ffffffffffffffffffffffffffffffffffffffff021916908373ffffffffffffffffffffffffffffffffffffffff160217905550655af3107a4000600a81905550655a0a3bd53000600b819055506000600c60006101000a81548160ff02191690831515021790555050620002aa565b828054600181600116156101000203166002900490600052602060002090601f016020900481019282601f106200023e57805160ff19168380011785556200026f565b828001600101855582156200026f579182015b828111156200026e57825182559160200191906001019062000251565b5b5090506200027e919062000282565b5090565b620002a791905b80821115620002a357600081600090555060010162000289565b5090565b90565b612b8180620002ba6000396000f30060606040526004361061018b576000357c0100000000000000000000000000000000000000000000000000000000900463ffffffff16806301e82e6f1461019057806305fefda7146101c957806306fdde03146101f5578063095ea7b31461028357806318160ddd146102dd57806323b872dd1461030657806327e235e31461037f57806329bd58b4146103cc578063313ce56714610426578063326687b91461045557806341c0e1b5146104825780634b750334146104975780634bea96b3146104c057806354fd4d501461050d57806355b6ed5c1461059b578063601dd7d91461060757806370a082311461062c5780637690f2311461067957806380f20363146106ca5780638620410b1461070557806395d89b411461072e5780639ef2017b146107bc578063a0712d681461080d578063a66e4e5f14610830578063a6f2ae3a14610885578063a9059cbb146108a3578063be45fd62146108fd578063d9f018781461099a578063dd62ed3e146109ef578063e4849b3214610a5b578063fe99ad5a14610a92575b600080fd5b341561019b57600080fd5b6101c7600480803573ffffffffffffffffffffffffffffffffffffffff16906020019091905050610acb565b005b34156101d457600080fd5b6101f36004808035906020019091908035906020019091905050610b6b565b005b341561020057600080fd5b610208610bd9565b6040518080602001828103825283818151815260200191508051906020019080838360005b8381101561024857808201518184015260208101905061022d565b50505050905090810190601f1680156102755780820380516001836020036101000a031916815260200191505b509250505060405180910390f35b341561028e57600080fd5b6102c3600480803573ffffffffffffffffffffffffffffffffffffffff16906020019091908035906020019091905050610c77565b604051808215151515815260200191505060405180910390f35b34156102e857600080fd5b6102f0610e79565b6040518082815260200191505060405180910390f35b341561031157600080fd5b610365600480803573ffffffffffffffffffffffffffffffffffffffff1690602001909190803573ffffffffffffffffffffffffffffffffffffffff16906020019091908035906020019091905050610e7f565b604051808215151515815260200191505060405180910390f35b341561038a57600080fd5b6103b6600480803573ffffffffffffffffffffffffffffffffffffffff169060200190919050506111b0565b6040518082815260200191505060405180910390f35b34156103d757600080fd5b61040c600480803573ffffffffffffffffffffffffffffffffffffffff169060200190919080359060200190919050506111c8565b604051808215151515815260200191505060405180910390f35b341561043157600080fd5b6104396114dc565b604051808260ff1660ff16815260200191505060405180910390f35b341561046057600080fd5b6104686114ef565b604051808215151515815260200191505060405180910390f35b341561048d57600080fd5b610495611502565b005b34156104a257600080fd5b6104aa611599565b6040518082815260200191505060405180910390f35b34156104cb57600080fd5b6104f7600480803573ffffffffffffffffffffffffffffffffffffffff1690602001909190505061159f565b6040518082815260200191505060405180910390f35b341561051857600080fd5b6105206115b7565b6040518080602001828103825283818151815260200191508051906020019080838360005b83811015610560578082015181840152602081019050610545565b50505050905090810190601f16801561058d5780820380516001836020036101000a031916815260200191505b509250505060405180910390f35b34156105a657600080fd5b6105f1600480803573ffffffffffffffffffffffffffffffffffffffff1690602001909190803573ffffffffffffffffffffffffffffffffffffffff16906020019091905050611655565b6040518082815260200191505060405180910390f35b341561061257600080fd5b61062a6004808035151590602001909190505061167a565b005b341561063757600080fd5b610663600480803573ffffffffffffffffffffffffffffffffffffffff169060200190919050506116f3565b6040518082815260200191505060405180910390f35b341561068457600080fd5b6106b0600480803573ffffffffffffffffffffffffffffffffffffffff1690602001909190505061173c565b604051808215151515815260200191505060405180910390f35b34156106d557600080fd5b6106eb60048080359060200190919050506118c1565b604051808215151515815260200191505060405180910390f35b341561071057600080fd5b610718611c17565b6040518082815260200191505060405180910390f35b341561073957600080fd5b610741611c1d565b6040518080602001828103825283818151815260200191508051906020019080838360005b83811015610781578082015181840152602081019050610766565b50505050905090810190601f1680156107ae5780820380516001836020036101000a031916815260200191505b509250505060405180910390f35b34156107c757600080fd5b6107f3600480803573ffffffffffffffffffffffffffffffffffffffff16906020019091905050611cbb565b604051808215151515815260200191505060405180910390f35b341561081857600080fd5b61082e6004808035906020019091905050611e1e565b005b341561083b57600080fd5b610843611fbc565b604051808273ffffffffffffffffffffffffffffffffffffffff1673ffffffffffffffffffffffffffffffffffffffff16815260200191505060405180910390f35b61088d611fe2565b6040518082815260200191505060405180910390f35b34156108ae57600080fd5b6108e3600480803573ffffffffffffffffffffffffffffffffffffffff16906020019091908035906020019091905050612206565b604051808215151515815260200191505060405180910390f35b341561090857600080fd5b610980600480803573ffffffffffffffffffffffffffffffffffffffff1690602001909190803590602001909190803590602001908201803590602001908080601f0160208091040260200160405190810160405280939291908181526020018383808284378201915050505050509190505061222b565b604051808215151515815260200191505060405180910390f35b34156109a557600080fd5b6109ad6127a9565b604051808273ffffffffffffffffffffffffffffffffffffffff1673ffffffffffffffffffffffffffffffffffffffff16815260200191505060405180910390f35b34156109fa57600080fd5b610a45600480803573ffffffffffffffffffffffffffffffffffffffff1690602001909190803573ffffffffffffffffffffffffffffffffffffffff169060200190919050506127cf565b6040518082815260200191505060405180910390f35b3415610a6657600080fd5b610a7c6004808035906020019091905050612856565b6040518082815260200191505060405180910390f35b3415610a9d57600080fd5b610ac9600480803573ffffffffffffffffffffffffffffffffffffffff16906020019091905050612a91565b005b600860009054906101000a900473ffffffffffffffffffffffffffffffffffffffff1673ffffffffffffffffffffffffffffffffffffffff163373ffffffffffffffffffffffffffffffffffffffff16141515610b2757600080fd5b80600960006101000a81548173ffffffffffffffffffffffffffffffffffffffff021916908373ffffffffffffffffffffffffffffffffffffffff16021790555050565b600860009054906101000a900473ffffffffffffffffffffffffffffffffffffffff1673ffffffffffffffffffffffffffffffffffffffff163373ffffffffffffffffffffffffffffffffffffffff16141515610bc757600080fd5b81600b8190555080600a819055505050565b60048054600181600116156101000203166002900480601f016020809104026020016040519081016040528092919081815260200182805460018160011615610100020316600290048015610c6f5780601f10610c4457610100808354040283529160200191610c6f565b820191906000526020600020905b815481529060010190602001808311610c5257829003601f168201915b505050505081565b6000600260003373ffffffffffffffffffffffffffffffffffffffff1673ffffffffffffffffffffffffffffffffffffffff16815260200190815260200160002060008473ffffffffffffffffffffffffffffffffffffffff1673ffffffffffffffffffffffffffffffffffffffff1681526020019081526020016000205482600260003373ffffffffffffffffffffffffffffffffffffffff1673ffffffffffffffffffffffffffffffffffffffff16815260200190815260200160002060008673ffffffffffffffffffffffffffffffffffffffff1673ffffffffffffffffffffffffffffffffffffffff16815260200190815260200160002054011015610d8057600080fd5b81600260003373ffffffffffffffffffffffffffffffffffffffff1673ffffffffffffffffffffffffffffffffffffffff16815260200190815260200160002060008573ffffffffffffffffffffffffffffffffffffffff1673ffffffffffffffffffffffffffffffffffffffff168152602001908152602001600020600082825401925050819055508273ffffffffffffffffffffffffffffffffffffffff163373ffffffffffffffffffffffffffffffffffffffff167f8c5be1e5ebec7d5bd14f71427d1e84f3dd0314c0f7b2291e5b200ac8c7c3b925846040518082815260200191505060405180910390a36001905092915050565b60035481565b600081600160008673ffffffffffffffffffffffffffffffffffffffff1673ffffffffffffffffffffffffffffffffffffffff168152602001908152602001600020541015610ecd57600080fd5b600160008473ffffffffffffffffffffffffffffffffffffffff1673ffffffffffffffffffffffffffffffffffffffff1681526020019081526020016000205482600160008673ffffffffffffffffffffffffffffffffffffffff1673ffffffffffffffffffffffffffffffffffffffff16815260200190815260200160002054011015610f5a57600080fd5b81600260008673ffffffffffffffffffffffffffffffffffffffff1673ffffffffffffffffffffffffffffffffffffffff16815260200190815260200160002060003373ffffffffffffffffffffffffffffffffffffffff1673ffffffffffffffffffffffffffffffffffffffff168152602001908152602001600020541015610fe357600080fd5b81600160008673ffffffffffffffffffffffffffffffffffffffff1673ffffffffffffffffffffffffffffffffffffffff1681526020019081526020016000206000828254039250508190555081600160008573ffffffffffffffffffffffffffffffffffffffff1673ffffffffffffffffffffffffffffffffffffffff1681526020019081526020016000206000828254019250508190555081600260008673ffffffffffffffffffffffffffffffffffffffff1673ffffffffffffffffffffffffffffffffffffffff16815260200190815260200160002060003373ffffffffffffffffffffffffffffffffffffffff1673ffffffffffffffffffffffffffffffffffffffff168152602001908152602001600020600082825403925050819055508273ffffffffffffffffffffffffffffffffffffffff168473ffffffffffffffffffffffffffffffffffffffff167fe19260aff97b920c7df27010903aeb9c8d2be5d310a2c67824cf3f15396e4c168460405180828152602001806020018281038252600c8152602001807f7472616e7366657246726f6d00000000000000000000000000000000000000008152506020019250505060405180910390a3600190509392505050565b60016020528060005260406000206000915090505481565b6000600860009054906101000a900473ffffffffffffffffffffffffffffffffffffffff1673ffffffffffffffffffffffffffffffffffffffff163373ffffffffffffffffffffffffffffffffffffffff1614151561122657600080fd5b600260008473ffffffffffffffffffffffffffffffffffffffff1673ffffffffffffffffffffffffffffffffffffffff1681526020019081526020016000206000600860009054906101000a900473ffffffffffffffffffffffffffffffffffffffff1673ffffffffffffffffffffffffffffffffffffffff1673ffffffffffffffffffffffffffffffffffffffff1681526020019081526020016000205482600260008673ffffffffffffffffffffffffffffffffffffffff1673ffffffffffffffffffffffffffffffffffffffff1681526020019081526020016000206000600860009054906101000a900473ffffffffffffffffffffffffffffffffffffffff1673ffffffffffffffffffffffffffffffffffffffff1673ffffffffffffffffffffffffffffffffffffffff1681526020019081526020016000205401101561137157600080fd5b81600260008573ffffffffffffffffffffffffffffffffffffffff1673ffffffffffffffffffffffffffffffffffffffff1681526020019081526020016000206000600860009054906101000a900473ffffffffffffffffffffffffffffffffffffffff1673ffffffffffffffffffffffffffffffffffffffff1673ffffffffffffffffffffffffffffffffffffffff16815260200190815260200160002060008282540192505081905550600860009054906101000a900473ffffffffffffffffffffffffffffffffffffffff1673ffffffffffffffffffffffffffffffffffffffff163373ffffffffffffffffffffffffffffffffffffffff167f8c5be1e5ebec7d5bd14f71427d1e84f3dd0314c0f7b2291e5b200ac8c7c3b925846040518082815260200191505060405180910390a36114d183600860009054906101000a900473ffffffffffffffffffffffffffffffffffffffff1684610e7f565b506001905092915050565b600560009054906101000a900460ff1681565b600c60009054906101000a900460ff1681565b600860009054906101000a900473ffffffffffffffffffffffffffffffffffffffff1673ffffffffffffffffffffffffffffffffffffffff163373ffffffffffffffffffffffffffffffffffffffff1614151561155e57600080fd5b600860009054906101000a900473ffffffffffffffffffffffffffffffffffffffff1673ffffffffffffffffffffffffffffffffffffffff16ff5b600b5481565b60006020528060005260406000206000915090505481565b60078054600181600116156101000203166002900480601f01602080910402602001604051908101604052809291908181526020018280546001816001161561010002031660029004801561164d5780601f106116225761010080835404028352916020019161164d565b820191906000526020600020905b81548152906001019060200180831161163057829003601f168201915b505050505081565b6002602052816000526040600020602052806000526040600020600091509150505481565b600860009054906101000a900473ffffffffffffffffffffffffffffffffffffffff1673ffffffffffffffffffffffffffffffffffffffff163373ffffffffffffffffffffffffffffffffffffffff161415156116d657600080fd5b80600c60006101000a81548160ff02191690831515021790555050565b6000600160008373ffffffffffffffffffffffffffffffffffffffff1673ffffffffffffffffffffffffffffffffffffffff168152602001908152602001600020549050919050565b6000600860009054906101000a900473ffffffffffffffffffffffffffffffffffffffff1673ffffffffffffffffffffffffffffffffffffffff163373ffffffffffffffffffffffffffffffffffffffff1614151561179a57600080fd5b60008060008473ffffffffffffffffffffffffffffffffffffffff1673ffffffffffffffffffffffffffffffffffffffff1681526020019081526020016000205414156117e657600080fd5b611873600960009054906101000a900473ffffffffffffffffffffffffffffffffffffffff16600860009054906101000a900473ffffffffffffffffffffffffffffffffffffffff166000808673ffffffffffffffffffffffffffffffffffffffff1673ffffffffffffffffffffffffffffffffffffffff16815260200190815260200160002054610e7f565b5060008060008473ffffffffffffffffffffffffffffffffffffffff1673ffffffffffffffffffffffffffffffffffffffff1681526020019081526020016000208190555060019050919050565b6000806000803373ffffffffffffffffffffffffffffffffffffffff1673ffffffffffffffffffffffffffffffffffffffff1681526020019081526020016000205414151561190f57600080fd5b61194c600960009054906101000a900473ffffffffffffffffffffffffffffffffffffffff1683602060405190810160405280600081525061222b565b50816000803373ffffffffffffffffffffffffffffffffffffffff1673ffffffffffffffffffffffffffffffffffffffff16815260200190815260200160002081905550600260003373ffffffffffffffffffffffffffffffffffffffff1673ffffffffffffffffffffffffffffffffffffffff1681526020019081526020016000206000600860009054906101000a900473ffffffffffffffffffffffffffffffffffffffff1673ffffffffffffffffffffffffffffffffffffffff1673ffffffffffffffffffffffffffffffffffffffff1681526020019081526020016000205482600260003373ffffffffffffffffffffffffffffffffffffffff1673ffffffffffffffffffffffffffffffffffffffff1681526020019081526020016000206000600860009054906101000a900473ffffffffffffffffffffffffffffffffffffffff1673ffffffffffffffffffffffffffffffffffffffff1673ffffffffffffffffffffffffffffffffffffffff16815260200190815260200160002054011015611adb57600080fd5b81600260003373ffffffffffffffffffffffffffffffffffffffff1673ffffffffffffffffffffffffffffffffffffffff1681526020019081526020016000206000600860009054906101000a900473ffffffffffffffffffffffffffffffffffffffff1673ffffffffffffffffffffffffffffffffffffffff1673ffffffffffffffffffffffffffffffffffffffff16815260200190815260200160002060008282540192505081905550600860009054906101000a900473ffffffffffffffffffffffffffffffffffffffff1673ffffffffffffffffffffffffffffffffffffffff163373ffffffffffffffffffffffffffffffffffffffff167f8c5be1e5ebec7d5bd14f71427d1e84f3dd0314c0f7b2291e5b200ac8c7c3b925846040518082815260200191505060405180910390a360019050919050565b600a5481565b60068054600181600116156101000203166002900480601f016020809104026020016040519081016040528092919081815260200182805460018160011615610100020316600290048015611cb35780601f10611c8857610100808354040283529160200191611cb3565b820191906000526020600020905b815481529060010190602001808311611c9657829003601f168201915b505050505081565b6000600860009054906101000a900473ffffffffffffffffffffffffffffffffffffffff1673ffffffffffffffffffffffffffffffffffffffff163373ffffffffffffffffffffffffffffffffffffffff16141515611d1957600080fd5b60008060008473ffffffffffffffffffffffffffffffffffffffff1673ffffffffffffffffffffffffffffffffffffffff168152602001908152602001600020541415611d6557600080fd5b611dd0600960009054906101000a900473ffffffffffffffffffffffffffffffffffffffff16836000808673ffffffffffffffffffffffffffffffffffffffff1673ffffffffffffffffffffffffffffffffffffffff16815260200190815260200160002054610e7f565b5060008060008473ffffffffffffffffffffffffffffffffffffffff1673ffffffffffffffffffffffffffffffffffffffff1681526020019081526020016000208190555060019050919050565b600860009054906101000a900473ffffffffffffffffffffffffffffffffffffffff1673ffffffffffffffffffffffffffffffffffffffff163373ffffffffffffffffffffffffffffffffffffffff16141515611e7a57600080fd5b8060016000600860009054906101000a900473ffffffffffffffffffffffffffffffffffffffff1673ffffffffffffffffffffffffffffffffffffffff1673ffffffffffffffffffffffffffffffffffffffff1681526020019081526020016000206000828254019250508190555080600360008282540192505081905550600860009054906101000a900473ffffffffffffffffffffffffffffffffffffffff1673ffffffffffffffffffffffffffffffffffffffff163073ffffffffffffffffffffffffffffffffffffffff167fe19260aff97b920c7df27010903aeb9c8d2be5d310a2c67824cf3f15396e4c16836040518082815260200180602001828103825260048152602001807f6d696e74000000000000000000000000000000000000000000000000000000008152506020019250505060405180910390a350565b600960009054906101000a900473ffffffffffffffffffffffffffffffffffffffff1681565b600060011515600c60009054906101000a900460ff16151514151561200657600080fd5b600a543481151561201357fe5b0490508060016000600860009054906101000a900473ffffffffffffffffffffffffffffffffffffffff1673ffffffffffffffffffffffffffffffffffffffff1673ffffffffffffffffffffffffffffffffffffffff16815260200190815260200160002054101561208457600080fd5b8060016000600860009054906101000a900473ffffffffffffffffffffffffffffffffffffffff1673ffffffffffffffffffffffffffffffffffffffff1673ffffffffffffffffffffffffffffffffffffffff1681526020019081526020016000206000828254039250508190555080600160003373ffffffffffffffffffffffffffffffffffffffff1673ffffffffffffffffffffffffffffffffffffffff168152602001908152602001600020600082825401925050819055503373ffffffffffffffffffffffffffffffffffffffff16600860009054906101000a900473ffffffffffffffffffffffffffffffffffffffff1673ffffffffffffffffffffffffffffffffffffffff167fe19260aff97b920c7df27010903aeb9c8d2be5d310a2c67824cf3f15396e4c16836040518082815260200180602001828103825260038152602001807f62757900000000000000000000000000000000000000000000000000000000008152506020019250505060405180910390a380905090565b60006122238383602060405190810160405280600081525061222b565b905092915050565b60008061223785612b31565b156125b05783600160003373ffffffffffffffffffffffffffffffffffffffff1673ffffffffffffffffffffffffffffffffffffffff16815260200190815260200160002054101561228857600080fd5b600160008673ffffffffffffffffffffffffffffffffffffffff1673ffffffffffffffffffffffffffffffffffffffff1681526020019081526020016000205484600160008873ffffffffffffffffffffffffffffffffffffffff1673ffffffffffffffffffffffffffffffffffffffff1681526020019081526020016000205401101561231557600080fd5b83600160003373ffffffffffffffffffffffffffffffffffffffff1673ffffffffffffffffffffffffffffffffffffffff1681526020019081526020016000206000828254039250508190555083600160008773ffffffffffffffffffffffffffffffffffffffff1673ffffffffffffffffffffffffffffffffffffffff168152602001908152602001600020600082825401925050819055508490508073ffffffffffffffffffffffffffffffffffffffff1663c0ee0b8a3386866040518463ffffffff167c0100000000000000000000000000000000000000000000000000000000028152600401808473ffffffffffffffffffffffffffffffffffffffff1673ffffffffffffffffffffffffffffffffffffffff16815260200183815260200180602001828103825283818151815260200191508051906020019080838360005b83811015612474578082015181840152602081019050612459565b50505050905090810190601f1680156124a15780820380516001836020036101000a031916815260200191505b50945050505050600060405180830381600087803b15156124c157600080fd5b6102c65a03f115156124d257600080fd5b5050508473ffffffffffffffffffffffffffffffffffffffff163373ffffffffffffffffffffffffffffffffffffffff167fe19260aff97b920c7df27010903aeb9c8d2be5d310a2c67824cf3f15396e4c1686866040518083815260200180602001828103825283818151815260200191508051906020019080838360005b8381101561256c578082015181840152602081019050612551565b50505050905090810190601f1680156125995780820380516001836020036101000a031916815260200191505b50935050505060405180910390a3600191506127a1565b83600160003373ffffffffffffffffffffffffffffffffffffffff1673ffffffffffffffffffffffffffffffffffffffff1681526020019081526020016000205410156125fc57600080fd5b600160008673ffffffffffffffffffffffffffffffffffffffff1673ffffffffffffffffffffffffffffffffffffffff1681526020019081526020016000205484600160008873ffffffffffffffffffffffffffffffffffffffff1673ffffffffffffffffffffffffffffffffffffffff1681526020019081526020016000205401101561268957600080fd5b83600160003373ffffffffffffffffffffffffffffffffffffffff1673ffffffffffffffffffffffffffffffffffffffff1681526020019081526020016000206000828254039250508190555083600160008773ffffffffffffffffffffffffffffffffffffffff1673ffffffffffffffffffffffffffffffffffffffff168152602001908152602001600020600082825401925050819055508473ffffffffffffffffffffffffffffffffffffffff163373ffffffffffffffffffffffffffffffffffffffff167fe19260aff97b920c7df27010903aeb9c8d2be5d310a2c67824cf3f15396e4c168660405180828152602001806020018281038252600081526020016020019250505060405180910390a3600191505b509392505050565b600860009054906101000a900473ffffffffffffffffffffffffffffffffffffffff1681565b6000600260008473ffffffffffffffffffffffffffffffffffffffff1673ffffffffffffffffffffffffffffffffffffffff16815260200190815260200160002060008373ffffffffffffffffffffffffffffffffffffffff1673ffffffffffffffffffffffffffffffffffffffff16815260200190815260200160002054905092915050565b600060011515600c60009054906101000a900460ff16151514151561287a57600080fd5b81600160003373ffffffffffffffffffffffffffffffffffffffff1673ffffffffffffffffffffffffffffffffffffffff1681526020019081526020016000205410156128c657600080fd5b8160016000600860009054906101000a900473ffffffffffffffffffffffffffffffffffffffff1673ffffffffffffffffffffffffffffffffffffffff1673ffffffffffffffffffffffffffffffffffffffff1681526020019081526020016000206000828254019250508190555081600160003373ffffffffffffffffffffffffffffffffffffffff1673ffffffffffffffffffffffffffffffffffffffff16815260200190815260200160002060008282540392505081905550600b54820290503373ffffffffffffffffffffffffffffffffffffffff166108fc829081150290604051600060405180830381858888f1935050505015156129c957600080fd5b600860009054906101000a900473ffffffffffffffffffffffffffffffffffffffff1673ffffffffffffffffffffffffffffffffffffffff163373ffffffffffffffffffffffffffffffffffffffff167fe19260aff97b920c7df27010903aeb9c8d2be5d310a2c67824cf3f15396e4c16846040518082815260200180602001828103825260048152602001807f73656c6c000000000000000000000000000000000000000000000000000000008152506020019250505060405180910390a3809050919050565b600860009054906101000a900473ffffffffffffffffffffffffffffffffffffffff1673ffffffffffffffffffffffffffffffffffffffff163373ffffffffffffffffffffffffffffffffffffffff16141515612aed57600080fd5b80600860006101000a81548173ffffffffffffffffffffffffffffffffffffffff021916908373ffffffffffffffffffffffffffffffffffffffff16021790555050565b600080823b90506000811115612b4a5760019150612b4f565b600091505b509190505600a165627a7a7230582040b531c0cca75180f119e8142ce1f35ca6ce345c773ff957421a642af9b4e5970029",
  "source": "pragma solidity ^0.4.18;\n\n\ncontract Custodian {\n  // fallback for loancoin\n  function tokenFallback(address _address, uint256 _value, bytes _data) public {\n  }\n}\n\ncontract RatelExampleToken {\n\n  // locked\n  mapping (address => uint256) public lockedValue;\n\n  // ERC20 State\n  mapping (address => uint256) public balances;\n  mapping (address => mapping (address => uint256)) public allowances;\n  uint256 public totalSupply;\n\n  // Human State\n  string public name;\n  uint8 public decimals;\n  string public symbol;\n  string public version;\n\n  // Minter Address\n  address public centralMinter;\n\n  // Custodian Address\n  address public custodianAddress;\n\n  // Backed By Ether State\n  uint256 public buyPrice;\n  uint256 public sellPrice;\n\n  // on sale?\n  bool public onSale;\n\n  // Modifiers: only Minter\n  modifier onlyMinter {\n    if (msg.sender != centralMinter) revert();\n    _;\n  }\n\n  // Modifiers: onSale?\n  modifier onlyOnSale {\n    if (onSale != true) revert();\n    _;\n  }\n\n  // ERC20 Events\n  event Transfer(address indexed _from, address indexed _to, uint256 _value, bytes _data);\n  event Approval(address indexed _owner, address indexed _spender, uint256 _value);\n\n  // Constructor\n  function RatelExampleToken(uint256 _initialAmount) public {\n    balances[msg.sender] = _initialAmount;\n    totalSupply = _initialAmount;\n    name = \"Ratel Network Token\";\n    decimals = 18;\n    symbol = \"RNT\";\n    version = \"0.1\";\n    centralMinter = msg.sender;\n    buyPrice = 100000000000000;\n    sellPrice = 99000000000000;\n    onSale = false;\n  }\n\n  // check if address is contract or not\n  function isContract(address _address) private view returns (bool is_contract) {\n    uint length;\n    assembly {\n      length := extcodesize(_address)\n    }\n    if (length > 0) {\n      return true;\n    } else {\n      return false;\n    }\n  }\n\n  // ERC20 Methods\n  function balanceOf(address _address) constant public returns (uint256 balance) {\n    return balances[_address];\n  }\n\n  function allowance(address _owner, address _spender) constant public returns (uint256 remaining) {\n    return allowances[_owner][_spender];\n  }\n\n  // ERC 20\n  function transfer(address _to, uint256 _value) public returns (bool success) {\n    return transfer(_to, _value, \"\");\n  }\n\n  // ERC 223\n  function transfer(address _to, uint256 _value, bytes _data) public returns (bool success) {\n\n    if (isContract(_to)) {\n\n      if(balances[msg.sender] < _value) revert();\n      if(balances[_to] + _value < balances[_to]) revert();\n      balances[msg.sender] -= _value;\n      balances[_to] += _value;\n\n      Custodian receiver = Custodian(_to);\n      receiver.tokenFallback(msg.sender, _value, _data);\n\n      Transfer(msg.sender, _to, _value, _data);\n      return true;\n    } else {\n      // nomal address\n      if(balances[msg.sender] < _value) revert();\n      if(balances[_to] + _value < balances[_to]) revert();\n      balances[msg.sender] -= _value;\n      balances[_to] += _value;\n      Transfer(msg.sender, _to, _value, \"\");\n      return true;\n    }\n  }\n\n  function approve(address _spender, uint256 _value) public returns (bool success) {\n    if (allowances[msg.sender][_spender] + _value < allowances[msg.sender][_spender]) revert();\n    allowances[msg.sender][_spender] += _value;\n    Approval(msg.sender, _spender, _value);\n    return true;\n  }\n\n  function transferFrom(address _owner, address _to, uint256 _value) public returns (bool success) {\n    if(balances[_owner] < _value) revert();\n    if(balances[_to] + _value < balances[_to]) revert();\n    if(allowances[_owner][msg.sender] < _value) revert();\n    balances[_owner] -= _value;\n    balances[_to] += _value;\n    allowances[_owner][msg.sender] -= _value;\n\n    Transfer(_owner, _to, _value, \"transferFrom\");\n    return true;\n  }\n\n  // Minter Functions\n  function mint(uint256 _amountToMint) public onlyMinter {\n    balances[centralMinter] += _amountToMint;\n    totalSupply += _amountToMint;\n    Transfer(this, centralMinter, _amountToMint, \"mint\");\n  }\n\n  function transferMinter(address _address) public onlyMinter {\n    centralMinter = _address;\n  }\n\n  function transferCustodian(address _address) public onlyMinter {\n    custodianAddress = _address;\n  }\n\n  function updateSale(bool _onSale) public onlyMinter {\n    onSale = _onSale;\n  }\n\n  // Use transfer to issue token\n  // Revoke token after verifying contribution\n  function revokeToken( address _address, uint256 _value ) public onlyMinter returns (bool success) {\n\n    // approve\n    if (allowances[_address][centralMinter] + _value < allowances[_address][centralMinter]) revert();\n    allowances[_address][centralMinter] += _value;\n    Approval(msg.sender, centralMinter, _value);\n\n    // transfer from\n    transferFrom(_address, centralMinter, _value);\n\n    return true;\n  }\n\n  // lock and unlock fund. we use this feature when move token to main net\n  function lockToken( uint256 _value ) public returns (bool success) {\n\n    if (lockedValue[msg.sender] != 0) revert();\n\n    // transfer value\n    transfer(custodianAddress, _value, \"\");\n\n    // lock value\n    lockedValue[msg.sender] = _value;\n\n    // approve\n    if (allowances[msg.sender][centralMinter] + _value < allowances[msg.sender][centralMinter]) revert();\n    allowances[msg.sender][centralMinter] += _value;\n    Approval(msg.sender, centralMinter, _value);\n\n    return true;\n  }\n\n  // move token to central minter because token was moved to main net successfully\n  function moveTokenToMinter( address _address ) public onlyMinter returns (bool success) {\n    if (lockedValue[_address] == 0) revert();\n    transferFrom(custodianAddress, centralMinter, lockedValue[_address]);\n    lockedValue[_address] = 0;\n    return true;\n  }\n\n  // move token back to original owner because token was NOT moved to main net successfully\n  function unlockToken( address _address) public onlyMinter returns (bool success) {\n    if (lockedValue[_address] == 0) revert();\n    transferFrom(custodianAddress, _address, lockedValue[_address]);\n    lockedValue[_address] = 0;\n    return true;\n  }\n\n\n  // Backed By Ether Methods\n  // Must create the contract so that it has enough Ether to buy back ALL tokens on the market, or else the contract will be insolvent and users won't be able to sell their tokens\n  function setPrices(uint256 _newSellPrice, uint256 _newBuyPrice) public onlyMinter {\n    sellPrice = _newSellPrice;\n    buyPrice = _newBuyPrice;\n  }\n\n  function buy() payable public onlyOnSale returns (uint amount) {\n    amount = msg.value / buyPrice;\n    // Validate there are enough tokens minted\n    if(balances[centralMinter] < amount) revert();\n    balances[centralMinter] -= amount;\n    balances[msg.sender] += amount;\n    Transfer(centralMinter, msg.sender, amount, \"buy\");\n    return amount;\n  }\n\n  function sell(uint _amount) public onlyOnSale returns (uint revenue) {\n    // Validate sender has enough tokens to sell\n    if (balances[msg.sender] < _amount) revert();\n    balances[centralMinter] += _amount;\n    balances[msg.sender] -= _amount;\n    revenue = _amount * sellPrice;\n    if (!msg.sender.send(revenue)) {\n      revert();\n    } else {\n      Transfer(msg.sender, centralMinter, _amount, \"sell\");\n      return revenue;\n    }\n  }\n\n  // kill contract itself\n  function kill() onlyMinter public {\n      selfdestruct(centralMinter);\n  }\n\n  // fallback for ether\n  function() payable public {\n    revert();\n  }\n}\n",
  "sourcePath": "/home/kouohhashi/ratel_voice/smart_contract/contracts/Custodian.sol",
  "compiler": {
    "name": "solc",
    "version": "0.4.18+commit.9cf6e910.Emscripten.clang"
  },
  "schemaVersion": "1.0.1",
  "updatedAt": "2017-12-20T00:05:31.341Z"
}